{
  "_format": "hh-sol-artifact-1",
  "contractName": "Tickbit",
  "sourceName": "contracts/Tickbit.sol",
  "abi": [
    {
      "inputs": [],
      "stateMutability": "nonpayable",
      "type": "constructor"
    },
    {
      "anonymous": false,
      "inputs": [
        {
          "indexed": true,
          "internalType": "address",
          "name": "_owner",
          "type": "address"
        },
        {
          "indexed": true,
          "internalType": "uint256",
          "name": "_id",
          "type": "uint256"
        },
        {
          "indexed": false,
          "internalType": "string",
          "name": "title",
          "type": "string"
        },
        {
          "indexed": false,
          "internalType": "string",
          "name": "city",
          "type": "string"
        },
        {
          "indexed": false,
          "internalType": "string",
          "name": "description",
          "type": "string"
        },
        {
          "indexed": false,
          "internalType": "string",
          "name": "artist",
          "type": "string"
        },
        {
          "indexed": false,
          "internalType": "string",
          "name": "coverImageUrl",
          "type": "string"
        },
        {
          "indexed": false,
          "internalType": "uint256",
          "name": "category",
          "type": "uint256"
        }
      ],
      "name": "EventItemCreated",
      "type": "event"
    },
    {
      "anonymous": false,
      "inputs": [
        {
          "indexed": true,
          "internalType": "address",
          "name": "previousOwner",
          "type": "address"
        },
        {
          "indexed": true,
          "internalType": "address",
          "name": "newOwner",
          "type": "address"
        }
      ],
      "name": "OwnershipTransferred",
      "type": "event"
    },
    {
      "inputs": [
        {
          "internalType": "address",
          "name": "_owner",
          "type": "address"
        },
        {
          "internalType": "string",
          "name": "title",
          "type": "string"
        },
        {
          "internalType": "string",
          "name": "city",
          "type": "string"
        },
        {
          "internalType": "string",
          "name": "description",
          "type": "string"
        },
        {
          "internalType": "string",
          "name": "artist",
          "type": "string"
        },
        {
          "internalType": "string",
          "name": "coverImageUrl",
          "type": "string"
        },
        {
          "internalType": "uint256",
          "name": "category",
          "type": "uint256"
        }
      ],
      "name": "createEvent",
      "outputs": [],
      "stateMutability": "nonpayable",
      "type": "function"
    },
    {
      "inputs": [],
      "name": "owner",
      "outputs": [
        {
          "internalType": "address",
          "name": "",
          "type": "address"
        }
      ],
      "stateMutability": "view",
      "type": "function"
    },
    {
      "inputs": [],
      "name": "readAllEvents",
      "outputs": [
        {
          "components": [
            {
              "internalType": "address",
              "name": "_owner",
              "type": "address"
            },
            {
              "internalType": "uint256",
              "name": "_id",
              "type": "uint256"
            },
            {
              "internalType": "string",
              "name": "title",
              "type": "string"
            },
            {
              "internalType": "string",
              "name": "city",
              "type": "string"
            },
            {
              "internalType": "string",
              "name": "description",
              "type": "string"
            },
            {
              "internalType": "string",
              "name": "artist",
              "type": "string"
            },
            {
              "internalType": "string",
              "name": "coverImageUrl",
              "type": "string"
            },
            {
              "internalType": "uint256",
              "name": "category",
              "type": "uint256"
            }
          ],
          "internalType": "struct Tickbit.EventItem[]",
          "name": "",
          "type": "tuple[]"
        }
      ],
      "stateMutability": "view",
      "type": "function"
    },
    {
      "inputs": [
        {
          "internalType": "uint256",
          "name": "id",
          "type": "uint256"
        }
      ],
      "name": "readEvent",
      "outputs": [
        {
          "components": [
            {
              "internalType": "address",
              "name": "_owner",
              "type": "address"
            },
            {
              "internalType": "uint256",
              "name": "_id",
              "type": "uint256"
            },
            {
              "internalType": "string",
              "name": "title",
              "type": "string"
            },
            {
              "internalType": "string",
              "name": "city",
              "type": "string"
            },
            {
              "internalType": "string",
              "name": "description",
              "type": "string"
            },
            {
              "internalType": "string",
              "name": "artist",
              "type": "string"
            },
            {
              "internalType": "string",
              "name": "coverImageUrl",
              "type": "string"
            },
            {
              "internalType": "uint256",
              "name": "category",
              "type": "uint256"
            }
          ],
          "internalType": "struct Tickbit.EventItem",
          "name": "",
          "type": "tuple"
        }
      ],
      "stateMutability": "view",
      "type": "function"
    },
    {
      "inputs": [],
      "name": "readMyEvents",
      "outputs": [
        {
          "components": [
            {
              "internalType": "address",
              "name": "_owner",
              "type": "address"
            },
            {
              "internalType": "uint256",
              "name": "_id",
              "type": "uint256"
            },
            {
              "internalType": "string",
              "name": "title",
              "type": "string"
            },
            {
              "internalType": "string",
              "name": "city",
              "type": "string"
            },
            {
              "internalType": "string",
              "name": "description",
              "type": "string"
            },
            {
              "internalType": "string",
              "name": "artist",
              "type": "string"
            },
            {
              "internalType": "string",
              "name": "coverImageUrl",
              "type": "string"
            },
            {
              "internalType": "uint256",
              "name": "category",
              "type": "uint256"
            }
          ],
          "internalType": "struct Tickbit.EventItem[]",
          "name": "",
          "type": "tuple[]"
        }
      ],
      "stateMutability": "view",
      "type": "function"
    },
    {
      "inputs": [],
      "name": "renounceOwnership",
      "outputs": [],
      "stateMutability": "nonpayable",
      "type": "function"
    },
    {
      "inputs": [
        {
          "internalType": "address",
          "name": "newOwner",
          "type": "address"
        }
      ],
      "name": "transferOwnership",
      "outputs": [],
      "stateMutability": "nonpayable",
      "type": "function"
    }
  ],
  "bytecode": "0x60806040523480156200001157600080fd5b506200001d336200019d565b620000dc73e52d770efd323897e4f86decd87f78437c20df896040518060400160405280600c81526020016b22b6102730b737902a37bab960a11b8152506040518060400160405280600981526020016842617263656c6f6e6160b81b815250604051806101600160405280610131815260200162001a946101319139604051806040016040528060078152602001664d656c656e646960c81b81525060405180608001604052806056815260200162001bc5605691396001620001ed565b6200019773e52d770efd323897e4f86decd87f78437c20df896040518060400160405280600f81526020016e1898903930bd37b732b9903a37bab960891b815250604051806040016040528060068152602001651358591c9a5960d21b8152506040518060c001604052806092815260200162001cba6092913960405180604001604052806006815260200165416974616e6160d01b8152506040518060c00160405280609f815260200162001c1b609f91396001620001ed565b62000547565b600080546001600160a01b038381166001600160a01b0319831681178455604051919092169283917f8be0079c531659141344cd1fd0a4f28419497f9722a3daafe3b4186f6b6457e09190a35050565b6200020460016200038a60201b62000f4c1760201c565b60006200021d60016200039360201b62000f551760201c565b60408051610100810182526001600160a01b038b8116825260208083018581528385018d8152606085018d9052608085018c905260a085018b905260c085018a905260e0850189905260008781526002808552969020855181546001600160a01b03191695169490941784559051600184015551805195965092949193620002ac939085019291019062000397565b5060608201518051620002ca91600384019160209091019062000397565b5060808201518051620002e891600484019160209091019062000397565b5060a082015180516200030691600584019160209091019062000397565b5060c082015180516200032491600684019160209091019062000397565b5060e0820151816007015590505080886001600160a01b03167f8b79232d595b03374702bfbd0aed724e236666a79ab3211f3756ad4756fe91d389898989898960405162000378969594939291906200048b565b60405180910390a35050505050505050565b80546001019055565b5490565b828054620003a5906200050a565b90600052602060002090601f016020900481019282620003c9576000855562000414565b82601f10620003e457805160ff191683800117855562000414565b8280016001018555821562000414579182015b8281111562000414578251825591602001919060010190620003f7565b506200042292915062000426565b5090565b5b8082111562000422576000815560010162000427565b60008151808452815b81811015620004645760208185018101518683018201520162000446565b81811115620004765782602083870101525b50601f01601f19169290920160200192915050565b60c081526000620004a060c08301896200043d565b8281036020840152620004b481896200043d565b90508281036040840152620004ca81886200043d565b90508281036060840152620004e081876200043d565b90508281036080840152620004f681866200043d565b9150508260a0830152979650505050505050565b600181811c908216806200051f57607f821691505b602082108114156200054157634e487b7160e01b600052602260045260246000fd5b50919050565b61153d80620005576000396000f3fe608060405234801561001057600080fd5b506004361061007d5760003560e01c80638da5cb5b1161005b5780638da5cb5b146100b2578063e1ba30a9146100cd578063f2fde38b146100ed578063f7a979dd1461010057600080fd5b806306f70fcc14610082578063202ae6f2146100a0578063715018a6146100a8575b600080fd5b61008a610113565b604051610097919061134f565b60405180910390f35b61008a61054c565b6100b0610979565b005b6000546040516001600160a01b039091168152602001610097565b6100e06100db36600461123a565b6109af565b604051610097919061145a565b6100b06100fb366004611133565b610d37565b6100b061010e366004611154565b610dd2565b6000546060906001600160a01b031633146101495760405162461bcd60e51b815260040161014090611425565b60405180910390fd5b600061015460015490565b90506000808267ffffffffffffffff81111561018057634e487b7160e01b600052604160045260246000fd5b6040519080825280602002602001820160405280156101b957816020015b6101a6610fa9565b81526020019060019003908161019e5790505b50905060005b838110156105445760006101d482600161146d565b60008181526002602081815260409283902083516101008101855281546001600160a01b0316815260018201549281019290925291820180549495509193909284929084019161022390611485565b80601f016020809104026020016040519081016040528092919081815260200182805461024f90611485565b801561029c5780601f106102715761010080835404028352916020019161029c565b820191906000526020600020905b81548152906001019060200180831161027f57829003601f168201915b505050505081526020016003820180546102b590611485565b80601f01602080910402602001604051908101604052809291908181526020018280546102e190611485565b801561032e5780601f106103035761010080835404028352916020019161032e565b820191906000526020600020905b81548152906001019060200180831161031157829003601f168201915b5050505050815260200160048201805461034790611485565b80601f016020809104026020016040519081016040528092919081815260200182805461037390611485565b80156103c05780601f10610395576101008083540402835291602001916103c0565b820191906000526020600020905b8154815290600101906020018083116103a357829003601f168201915b505050505081526020016005820180546103d990611485565b80601f016020809104026020016040519081016040528092919081815260200182805461040590611485565b80156104525780601f1061042757610100808354040283529160200191610452565b820191906000526020600020905b81548152906001019060200180831161043557829003601f168201915b5050505050815260200160068201805461046b90611485565b80601f016020809104026020016040519081016040528092919081815260200182805461049790611485565b80156104e45780601f106104b9576101008083540402835291602001916104e4565b820191906000526020600020905b8154815290600101906020018083116104c757829003601f168201915b5050505050815260200160078201548152505084868151811061051757634e487b7160e01b600052603260045260246000fd5b602090810291909101015261052d60018661146d565b94505050808061053c906114c0565b9150506101bf565b509250505090565b6060600061055960015490565b90506000808267ffffffffffffffff81111561058557634e487b7160e01b600052604160045260246000fd5b6040519080825280602002602001820160405280156105be57816020015b6105ab610fa9565b8152602001906001900390816105a35790505b50905060005b838110156105445733600260006105dc84600161146d565b81526020810191909152604001600020546001600160a01b0316141561096757600061060982600161146d565b60008181526002602081815260409283902083516101008101855281546001600160a01b0316815260018201549281019290925291820180549495509193909284929084019161065890611485565b80601f016020809104026020016040519081016040528092919081815260200182805461068490611485565b80156106d15780601f106106a6576101008083540402835291602001916106d1565b820191906000526020600020905b8154815290600101906020018083116106b457829003601f168201915b505050505081526020016003820180546106ea90611485565b80601f016020809104026020016040519081016040528092919081815260200182805461071690611485565b80156107635780601f1061073857610100808354040283529160200191610763565b820191906000526020600020905b81548152906001019060200180831161074657829003601f168201915b5050505050815260200160048201805461077c90611485565b80601f01602080910402602001604051908101604052809291908181526020018280546107a890611485565b80156107f55780601f106107ca576101008083540402835291602001916107f5565b820191906000526020600020905b8154815290600101906020018083116107d857829003601f168201915b5050505050815260200160058201805461080e90611485565b80601f016020809104026020016040519081016040528092919081815260200182805461083a90611485565b80156108875780601f1061085c57610100808354040283529160200191610887565b820191906000526020600020905b81548152906001019060200180831161086a57829003601f168201915b505050505081526020016006820180546108a090611485565b80601f01602080910402602001604051908101604052809291908181526020018280546108cc90611485565b80156109195780601f106108ee57610100808354040283529160200191610919565b820191906000526020600020905b8154815290600101906020018083116108fc57829003601f168201915b5050505050815260200160078201548152505084868151811061094c57634e487b7160e01b600052603260045260246000fd5b602090810291909101015261096260018661146d565b945050505b80610971816114c0565b9150506105c4565b6000546001600160a01b031633146109a35760405162461bcd60e51b815260040161014090611425565b6109ad6000610f59565b565b6109b7610fa9565b600082815260026020526040902060010154610a155760405162461bcd60e51b815260206004820152601c60248201527f5468697320636f6e747261637420646f6573206e6f74206578697374000000006044820152606401610140565b60008281526002602081815260409283902083516101008101855281546001600160a01b0316815260018201549281019290925291820180549193840191610a5c90611485565b80601f0160208091040260200160405190810160405280929190818152602001828054610a8890611485565b8015610ad55780601f10610aaa57610100808354040283529160200191610ad5565b820191906000526020600020905b815481529060010190602001808311610ab857829003601f168201915b50505050508152602001600382018054610aee90611485565b80601f0160208091040260200160405190810160405280929190818152602001828054610b1a90611485565b8015610b675780601f10610b3c57610100808354040283529160200191610b67565b820191906000526020600020905b815481529060010190602001808311610b4a57829003601f168201915b50505050508152602001600482018054610b8090611485565b80601f0160208091040260200160405190810160405280929190818152602001828054610bac90611485565b8015610bf95780601f10610bce57610100808354040283529160200191610bf9565b820191906000526020600020905b815481529060010190602001808311610bdc57829003601f168201915b50505050508152602001600582018054610c1290611485565b80601f0160208091040260200160405190810160405280929190818152602001828054610c3e90611485565b8015610c8b5780601f10610c6057610100808354040283529160200191610c8b565b820191906000526020600020905b815481529060010190602001808311610c6e57829003601f168201915b50505050508152602001600682018054610ca490611485565b80601f0160208091040260200160405190810160405280929190818152602001828054610cd090611485565b8015610d1d5780601f10610cf257610100808354040283529160200191610d1d565b820191906000526020600020905b815481529060010190602001808311610d0057829003601f168201915b505050505081526020016007820154815250509050919050565b6000546001600160a01b03163314610d615760405162461bcd60e51b815260040161014090611425565b6001600160a01b038116610dc65760405162461bcd60e51b815260206004820152602660248201527f4f776e61626c653a206e6577206f776e657220697320746865207a65726f206160448201526564647265737360d01b6064820152608401610140565b610dcf81610f59565b50565b610de0600180546001019055565b6000610deb60015490565b60408051610100810182526001600160a01b038b8116825260208083018581528385018d8152606085018d9052608085018c905260a085018b905260c085018a905260e0850189905260008781526002808552969020855181546001600160a01b03191695169490941784559051600184015551805195965092949193610e789390850192910190610ff7565b5060608201518051610e94916003840191602090910190610ff7565b5060808201518051610eb0916004840191602090910190610ff7565b5060a08201518051610ecc916005840191602090910190610ff7565b5060c08201518051610ee8916006840191602090910190610ff7565b5060e0820151816007015590505080886001600160a01b03167f8b79232d595b03374702bfbd0aed724e236666a79ab3211f3756ad4756fe91d3898989898989604051610f3a969594939291906113b0565b60405180910390a35050505050505050565b80546001019055565b5490565b600080546001600160a01b038381166001600160a01b0319831681178455604051919092169283917f8be0079c531659141344cd1fd0a4f28419497f9722a3daafe3b4186f6b6457e09190a35050565b60405180610100016040528060006001600160a01b03168152602001600081526020016060815260200160608152602001606081526020016060815260200160608152602001600081525090565b82805461100390611485565b90600052602060002090601f016020900481019282611025576000855561106b565b82601f1061103e57805160ff191683800117855561106b565b8280016001018555821561106b579182015b8281111561106b578251825591602001919060010190611050565b5061107792915061107b565b5090565b5b80821115611077576000815560010161107c565b80356001600160a01b03811681146110a757600080fd5b919050565b600082601f8301126110bc578081fd5b813567ffffffffffffffff808211156110d7576110d76114f1565b604051601f8301601f19908116603f011681019082821181831017156110ff576110ff6114f1565b81604052838152866020858801011115611117578485fd5b8360208701602083013792830160200193909352509392505050565b600060208284031215611144578081fd5b61114d82611090565b9392505050565b600080600080600080600060e0888a03121561116e578283fd5b61117788611090565b9650602088013567ffffffffffffffff80821115611193578485fd5b61119f8b838c016110ac565b975060408a01359150808211156111b4578485fd5b6111c08b838c016110ac565b965060608a01359150808211156111d5578485fd5b6111e18b838c016110ac565b955060808a01359150808211156111f6578485fd5b6112028b838c016110ac565b945060a08a0135915080821115611217578384fd5b506112248a828b016110ac565b92505060c0880135905092959891949750929550565b60006020828403121561124b578081fd5b5035919050565b60008151808452815b818110156112775760208185018101518683018201520161125b565b818111156112885782602083870101525b50601f01601f19169290920160200192915050565b80516001600160a01b0316825260006101006020830151602085015260408301518160408601526112d082860182611252565b915050606083015184820360608601526112ea8282611252565b915050608083015184820360808601526113048282611252565b91505060a083015184820360a086015261131e8282611252565b91505060c083015184820360c08601526113388282611252565b91505060e083015160e08501528091505092915050565b6000602080830181845280855180835260408601915060408160051b8701019250838701855b828110156113a357603f1988860301845261139185835161129d565b94509285019290850190600101611375565b5092979650505050505050565b60c0815260006113c360c0830189611252565b82810360208401526113d58189611252565b905082810360408401526113e98188611252565b905082810360608401526113fd8187611252565b905082810360808401526114118186611252565b9150508260a0830152979650505050505050565b6020808252818101527f4f776e61626c653a2063616c6c6572206973206e6f7420746865206f776e6572604082015260600190565b60208152600061114d602083018461129d565b60008219821115611480576114806114db565b500190565b600181811c9082168061149957607f821691505b602082108114156114ba57634e487b7160e01b600052602260045260246000fd5b50919050565b60006000198214156114d4576114d46114db565b5060010190565b634e487b7160e01b600052601160045260246000fd5b634e487b7160e01b600052604160045260246000fdfea2646970667358221220156ba8b532d9ce18e5d596858a1a2635de95a328bfc81eef650526eec89b0e3464736f6c6343000804003352616d6f6e204d656c656e646920457370696e612c20636f6e6f6369646f206172746973746963616d656e746520636f6d6f204d656c656e64692c20657320756e2063616e746175746f72207920636f6d706f7369746f7220657370616e6f6c206465206d757369636120706f7020792072756d62612e204465206a6f76656e2073656e74696120617472616363696f6e20706f7220656c20667574626f6c2c206465706f72746520717565206c6f20636f6e64756a6f20706f7220756e6120636f727461206361727265726120646520667574626f6c697374612c206465627574616e646f20656e207661726961732063617465676f7269617320696e666572696f72657320656e20656c2065717569706f206465207375206369756461642c20656c205265616c204f766965646f2e68747470733a2f2f7777772e6c6176616e677561726469612e636f6d2f66696c65732f696d6167655f3934385f3436352f75706c6f6164732f323031352f31322f31332f356661333038333361613165342e6a70656768747470733a2f2f686970732e686561727374617070732e636f6d2f686d672d70726f642e73332e616d617a6f6e6177732e636f6d2f696d616765732f616974616e612d31312d72617a6f6e65732d746f75722d6665636861732d63697564616465732d313631383331323532302e6a70673f63726f703d312e303078773a302e34303278683b302c302e30343438786826726573697a653d313230303a2a416974616e6120736520686120636f6e7665727469646f20656e20756e2066656e6f6d656e6f206d75736963616c207920736f6369616c2074726173207375207061736f20706f72204f7065726163696f6e20547269756e666f20656e2065737461207072696d6572612065646963696f6e206465206c61206e756576612065746170612064656c2070726f6772616d612e",
  "linkReferences": {},
  "deployedLinkReferences": {}
}